{
  "_format": "hh-sol-artifact-1",
  "contractName": "EventTicketing",
  "sourceName": "contracts/EventTicketing.sol",
  "abi": [
    {
      "anonymous": false,
      "inputs": [
        {
          "indexed": true,
          "internalType": "uint256",
          "name": "eventId",
          "type": "uint256"
        }
      ],
      "name": "EventCanceled",
      "type": "event"
    },
    {
      "anonymous": false,
      "inputs": [
        {
          "indexed": true,
          "internalType": "uint256",
          "name": "id",
          "type": "uint256"
        },
        {
          "indexed": true,
          "internalType": "address",
          "name": "organizer",
          "type": "address"
        },
        {
          "indexed": false,
          "internalType": "string",
          "name": "title",
          "type": "string"
        },
        {
          "indexed": false,
          "internalType": "uint256",
          "name": "date",
          "type": "uint256"
        },
        {
          "indexed": false,
          "internalType": "uint256",
          "name": "endDate",
          "type": "uint256"
        }
      ],
      "name": "EventCreated",
      "type": "event"
    },
    {
      "anonymous": false,
      "inputs": [
        {
          "indexed": true,
          "internalType": "uint256",
          "name": "eventId",
          "type": "uint256"
        },
        {
          "indexed": true,
          "internalType": "address",
          "name": "organizer",
          "type": "address"
        },
        {
          "indexed": false,
          "internalType": "uint256",
          "name": "amount",
          "type": "uint256"
        }
      ],
      "name": "FundsWithdrawn",
      "type": "event"
    },
    {
      "anonymous": false,
      "inputs": [
        {
          "indexed": true,
          "internalType": "uint256",
          "name": "eventId",
          "type": "uint256"
        },
        {
          "indexed": true,
          "internalType": "address",
          "name": "buyer",
          "type": "address"
        },
        {
          "indexed": false,
          "internalType": "uint256",
          "name": "amount",
          "type": "uint256"
        }
      ],
      "name": "RefundIssued",
      "type": "event"
    },
    {
      "anonymous": false,
      "inputs": [
        {
          "indexed": true,
          "internalType": "uint256",
          "name": "eventId",
          "type": "uint256"
        },
        {
          "indexed": true,
          "internalType": "address",
          "name": "buyer",
          "type": "address"
        },
        {
          "indexed": false,
          "internalType": "uint256",
          "name": "count",
          "type": "uint256"
        }
      ],
      "name": "TicketPurchased",
      "type": "event"
    },
    {
      "inputs": [
        {
          "internalType": "uint256",
          "name": "_eventId",
          "type": "uint256"
        },
        {
          "internalType": "uint256",
          "name": "_quantity",
          "type": "uint256"
        }
      ],
      "name": "buyTicket",
      "outputs": [],
      "stateMutability": "payable",
      "type": "function"
    },
    {
      "inputs": [
        {
          "internalType": "uint256",
          "name": "_eventId",
          "type": "uint256"
        }
      ],
      "name": "cancelEvent",
      "outputs": [],
      "stateMutability": "nonpayable",
      "type": "function"
    },
    {
      "inputs": [
        {
          "internalType": "string",
          "name": "_title",
          "type": "string"
        },
        {
          "internalType": "uint256",
          "name": "_price",
          "type": "uint256"
        },
        {
          "internalType": "uint256",
          "name": "_date",
          "type": "uint256"
        },
        {
          "internalType": "uint256",
          "name": "_endDate",
          "type": "uint256"
        },
        {
          "internalType": "uint256",
          "name": "_capacity",
          "type": "uint256"
        }
      ],
      "name": "createEvent",
      "outputs": [],
      "stateMutability": "nonpayable",
      "type": "function"
    },
    {
      "inputs": [
        {
          "internalType": "uint256",
          "name": "",
          "type": "uint256"
        }
      ],
      "name": "events",
      "outputs": [
        {
          "internalType": "uint256",
          "name": "id",
          "type": "uint256"
        },
        {
          "internalType": "address",
          "name": "organizer",
          "type": "address"
        },
        {
          "internalType": "string",
          "name": "title",
          "type": "string"
        },
        {
          "internalType": "uint256",
          "name": "price",
          "type": "uint256"
        },
        {
          "internalType": "uint256",
          "name": "date",
          "type": "uint256"
        },
        {
          "internalType": "uint256",
          "name": "endDate",
          "type": "uint256"
        },
        {
          "internalType": "uint256",
          "name": "capacity",
          "type": "uint256"
        },
        {
          "internalType": "uint256",
          "name": "soldCount",
          "type": "uint256"
        },
        {
          "internalType": "bool",
          "name": "isCanceled",
          "type": "bool"
        },
        {
          "internalType": "bool",
          "name": "fundsWithdrawn",
          "type": "bool"
        }
      ],
      "stateMutability": "view",
      "type": "function"
    },
    {
      "inputs": [],
      "name": "getAllEvents",
      "outputs": [
        {
          "components": [
            {
              "internalType": "uint256",
              "name": "id",
              "type": "uint256"
            },
            {
              "internalType": "address",
              "name": "organizer",
              "type": "address"
            },
            {
              "internalType": "string",
              "name": "title",
              "type": "string"
            },
            {
              "internalType": "uint256",
              "name": "price",
              "type": "uint256"
            },
            {
              "internalType": "uint256",
              "name": "date",
              "type": "uint256"
            },
            {
              "internalType": "uint256",
              "name": "endDate",
              "type": "uint256"
            },
            {
              "internalType": "uint256",
              "name": "capacity",
              "type": "uint256"
            },
            {
              "internalType": "uint256",
              "name": "soldCount",
              "type": "uint256"
            },
            {
              "internalType": "bool",
              "name": "isCanceled",
              "type": "bool"
            },
            {
              "internalType": "bool",
              "name": "fundsWithdrawn",
              "type": "bool"
            }
          ],
          "internalType": "struct EventTicketing.Event[]",
          "name": "",
          "type": "tuple[]"
        }
      ],
      "stateMutability": "view",
      "type": "function"
    },
    {
      "inputs": [],
      "name": "nextEventId",
      "outputs": [
        {
          "internalType": "uint256",
          "name": "",
          "type": "uint256"
        }
      ],
      "stateMutability": "view",
      "type": "function"
    },
    {
      "inputs": [
        {
          "internalType": "uint256",
          "name": "_eventId",
          "type": "uint256"
        }
      ],
      "name": "requestRefund",
      "outputs": [],
      "stateMutability": "nonpayable",
      "type": "function"
    },
    {
      "inputs": [
        {
          "internalType": "uint256",
          "name": "",
          "type": "uint256"
        },
        {
          "internalType": "address",
          "name": "",
          "type": "address"
        }
      ],
      "name": "tickets",
      "outputs": [
        {
          "internalType": "uint256",
          "name": "",
          "type": "uint256"
        }
      ],
      "stateMutability": "view",
      "type": "function"
    },
    {
      "inputs": [
        {
          "internalType": "uint256",
          "name": "_eventId",
          "type": "uint256"
        }
      ],
      "name": "withdrawFunds",
      "outputs": [],
      "stateMutability": "nonpayable",
      "type": "function"
    }
  ],
  "bytecode": "0x6080604052348015600f57600080fd5b506126e18061001f6000396000f3fe6080604052600436106100865760003560e01c80639f9d903a116100595780639f9d903a1461013f578063a4b2409e1461016a578063b99d6e2914610193578063c27a500d146101d0578063dbf3f3c9146101fb57610086565b80630b7914301461008b578063155dd5ee146100d1578063298ec208146100fa5780633f69babd14610116575b600080fd5b34801561009757600080fd5b506100b260048036038101906100ad9190611284565b610224565b6040516100c89a999897969594939291906113ac565b60405180910390f35b3480156100dd57600080fd5b506100f860048036038101906100f39190611284565b61033a565b005b610114600480360381019061010f919061144f565b610646565b005b34801561012257600080fd5b5061013d60048036038101906101389190611284565b6108b5565b005b34801561014b57600080fd5b50610154610a44565b604051610161919061148f565b60405180910390f35b34801561017657600080fd5b50610191600480360381019061018c9190611284565b610a4a565b005b34801561019f57600080fd5b506101ba60048036038101906101b591906114d6565b610d03565b6040516101c7919061148f565b60405180910390f35b3480156101dc57600080fd5b506101e5610d28565b6040516101f29190611729565b60405180910390f35b34801561020757600080fd5b50610222600480360381019061021d9190611880565b610f3c565b005b60016020528060005260406000206000915090508060000154908060010160009054906101000a900473ffffffffffffffffffffffffffffffffffffffff169080600201805461027390611946565b80601f016020809104026020016040519081016040528092919081815260200182805461029f90611946565b80156102ec5780601f106102c1576101008083540402835291602001916102ec565b820191906000526020600020905b8154815290600101906020018083116102cf57829003601f168201915b5050505050908060030154908060040154908060050154908060060154908060070154908060080160009054906101000a900460ff16908060080160019054906101000a900460ff1690508a565b60006001600083815260200190815260200160002090508060010160009054906101000a900473ffffffffffffffffffffffffffffffffffffffff1673ffffffffffffffffffffffffffffffffffffffff163373ffffffffffffffffffffffffffffffffffffffff16146103e3576040517f08c379a00000000000000000000000000000000000000000000000000000000081526004016103da906119c3565b60405180910390fd5b8060080160009054906101000a900460ff1615610435576040517f08c379a000000000000000000000000000000000000000000000000000000000815260040161042c90611a55565b60405180910390fd5b8060050154421161047b576040517f08c379a000000000000000000000000000000000000000000000000000000000815260040161047290611ac1565b60405180910390fd5b8060080160019054906101000a900460ff16156104cd576040517f08c379a00000000000000000000000000000000000000000000000000000000081526004016104c490611b2d565b60405180910390fd5b6000816003015482600701546104e39190611b7c565b905060008111610528576040517f08c379a000000000000000000000000000000000000000000000000000000000815260040161051f90611c0a565b60405180910390fd5b60018260080160016101000a81548160ff02191690831515021790555060003373ffffffffffffffffffffffffffffffffffffffff168260405161056b90611c5b565b60006040518083038185875af1925050503d80600081146105a8576040519150601f19603f3d011682016040523d82523d6000602084013e6105ad565b606091505b50509050806105f1576040517f08c379a00000000000000000000000000000000000000000000000000000000081526004016105e890611cbc565b60405180910390fd5b3373ffffffffffffffffffffffffffffffffffffffff16847ff440aec6b52895984d061d622e6edeba6210f7c3e059be920663140c084560d784604051610638919061148f565b60405180910390a350505050565b6000600160008481526020019081526020016000209050428160050154116106a3576040517f08c379a000000000000000000000000000000000000000000000000000000000815260040161069a90611d28565b60405180910390fd5b8060080160009054906101000a900460ff16156106f5576040517f08c379a00000000000000000000000000000000000000000000000000000000081526004016106ec90611d94565b60405180910390fd5b806006015482826007015461070a9190611db4565b111561074b576040517f08c379a000000000000000000000000000000000000000000000000000000000815260040161074290611e34565b60405180910390fd5b81816003015461075b9190611b7c565b341461079c576040517f08c379a000000000000000000000000000000000000000000000000000000000815260040161079390611ea0565b60405180910390fd5b600082116107df576040517f08c379a00000000000000000000000000000000000000000000000000000000081526004016107d690611f0c565b60405180910390fd5b816002600085815260200190815260200160002060003373ffffffffffffffffffffffffffffffffffffffff1673ffffffffffffffffffffffffffffffffffffffff168152602001908152602001600020600082825461083f9190611db4565b925050819055508181600701600082825461085a9190611db4565b925050819055503373ffffffffffffffffffffffffffffffffffffffff16837fdbaaf4c87ce30816c961a81d110622a3227ede77953d4383d514ff88ab2e0fd3846040516108a8919061148f565b60405180910390a3505050565b60006001600083815260200190815260200160002090508060010160009054906101000a900473ffffffffffffffffffffffffffffffffffffffff1673ffffffffffffffffffffffffffffffffffffffff163373ffffffffffffffffffffffffffffffffffffffff161461095e576040517f08c379a000000000000000000000000000000000000000000000000000000000815260040161095590611f78565b60405180910390fd5b8060080160009054906101000a900460ff16156109b0576040517f08c379a00000000000000000000000000000000000000000000000000000000081526004016109a790611fe4565b60405180910390fd5b428160040154116109f6576040517f08c379a00000000000000000000000000000000000000000000000000000000081526004016109ed90612050565b60405180910390fd5b60018160080160006101000a81548160ff021916908315150217905550817fceaf11772900fe569752a0207c8639fb8228eb8663456dc9eaa3a08f927a870560405160405180910390a25050565b60005481565b600060016000838152602001908152602001600020905060006002600084815260200190815260200160002060003373ffffffffffffffffffffffffffffffffffffffff1673ffffffffffffffffffffffffffffffffffffffff16815260200190815260200160002054905060008111610af9576040517f08c379a0000000000000000000000000000000000000000000000000000000008152600401610af0906120bc565b60405180910390fd5b60008260080160009054906101000a900460ff1615610b1b5760019050610b3b565b620151808360040154610b2e91906120dc565b421015610b3a57600190505b5b80610b7b576040517f08c379a0000000000000000000000000000000000000000000000000000000008152600401610b7290612182565b60405180910390fd5b6000836003015483610b8d9190611b7c565b905060006002600087815260200190815260200160002060003373ffffffffffffffffffffffffffffffffffffffff1673ffffffffffffffffffffffffffffffffffffffff1681526020019081526020016000208190555082846007016000828254610bf991906120dc565b9250508190555060003373ffffffffffffffffffffffffffffffffffffffff1682604051610c2690611c5b565b60006040518083038185875af1925050503d8060008114610c63576040519150601f19603f3d011682016040523d82523d6000602084013e610c68565b606091505b5050905080610cac576040517f08c379a0000000000000000000000000000000000000000000000000000000008152600401610ca3906121ee565b60405180910390fd5b3373ffffffffffffffffffffffffffffffffffffffff16867f7a482fdeb6bc9a1376f597068a214a7a39472bb2eff1b8cad21ba04f49ddca1b84604051610cf3919061148f565b60405180910390a3505050505050565b6002602052816000526040600020602052806000526040600020600091509150505481565b60606000805467ffffffffffffffff811115610d4757610d46611755565b5b604051908082528060200260200182016040528015610d8057816020015b610d6d6111cd565b815260200190600190039081610d655790505b50905060005b600054811015610f34576001600082815260200190815260200160002060405180610140016040529081600082015481526020016001820160009054906101000a900473ffffffffffffffffffffffffffffffffffffffff1673ffffffffffffffffffffffffffffffffffffffff1673ffffffffffffffffffffffffffffffffffffffff168152602001600282018054610e1f90611946565b80601f0160208091040260200160405190810160405280929190818152602001828054610e4b90611946565b8015610e985780601f10610e6d57610100808354040283529160200191610e98565b820191906000526020600020905b815481529060010190602001808311610e7b57829003601f168201915b5050505050815260200160038201548152602001600482015481526020016005820154815260200160068201548152602001600782015481526020016008820160009054906101000a900460ff161515151581526020016008820160019054906101000a900460ff161515151581525050828281518110610f1c57610f1b61220e565b5b60200260200101819052508080600101915050610d86565b508091505090565b428311610f7e576040517f08c379a0000000000000000000000000000000000000000000000000000000008152600401610f7590612289565b60405180910390fd5b828211610fc0576040517f08c379a0000000000000000000000000000000000000000000000000000000008152600401610fb79061231b565b60405180910390fd5b60008111611003576040517f08c379a0000000000000000000000000000000000000000000000000000000008152600401610ffa90612387565b60405180910390fd5b60405180610140016040528060005481526020013373ffffffffffffffffffffffffffffffffffffffff168152602001868152602001858152602001848152602001838152602001828152602001600081526020016000151581526020016000151581525060016000805481526020019081526020016000206000820151816000015560208201518160010160006101000a81548173ffffffffffffffffffffffffffffffffffffffff021916908373ffffffffffffffffffffffffffffffffffffffff16021790555060408201518160020190816110e29190612553565b50606082015181600301556080820151816004015560a0820151816005015560c0820151816006015560e082015181600701556101008201518160080160006101000a81548160ff0219169083151502179055506101208201518160080160016101000a81548160ff0219169083151502179055509050503373ffffffffffffffffffffffffffffffffffffffff166000547f3e1e16dc53562886fa9ab2acde567c1067c24a0c4daad0e47ab75c7b194a90ed8786866040516111a793929190612625565b60405180910390a36000808154809291906111c190612663565b91905055505050505050565b60405180610140016040528060008152602001600073ffffffffffffffffffffffffffffffffffffffff1681526020016060815260200160008152602001600081526020016000815260200160008152602001600081526020016000151581526020016000151581525090565b6000604051905090565b600080fd5b600080fd5b6000819050919050565b6112618161124e565b811461126c57600080fd5b50565b60008135905061127e81611258565b92915050565b60006020828403121561129a57611299611244565b5b60006112a88482850161126f565b91505092915050565b6112ba8161124e565b82525050565b600073ffffffffffffffffffffffffffffffffffffffff82169050919050565b60006112eb826112c0565b9050919050565b6112fb816112e0565b82525050565b600081519050919050565b600082825260208201905092915050565b60005b8381101561133b578082015181840152602081019050611320565b60008484015250505050565b6000601f19601f8301169050919050565b600061136382611301565b61136d818561130c565b935061137d81856020860161131d565b61138681611347565b840191505092915050565b60008115159050919050565b6113a681611391565b82525050565b6000610140820190506113c2600083018d6112b1565b6113cf602083018c6112f2565b81810360408301526113e1818b611358565b90506113f0606083018a6112b1565b6113fd60808301896112b1565b61140a60a08301886112b1565b61141760c08301876112b1565b61142460e08301866112b1565b61143261010083018561139d565b61144061012083018461139d565b9b9a5050505050505050505050565b6000806040838503121561146657611465611244565b5b60006114748582860161126f565b92505060206114858582860161126f565b9150509250929050565b60006020820190506114a460008301846112b1565b92915050565b6114b3816112e0565b81146114be57600080fd5b50565b6000813590506114d0816114aa565b92915050565b600080604083850312156114ed576114ec611244565b5b60006114fb8582860161126f565b925050602061150c858286016114c1565b9150509250929050565b600081519050919050565b600082825260208201905092915050565b6000819050602082019050919050565b61154b8161124e565b82525050565b61155a816112e0565b82525050565b600082825260208201905092915050565b600061157c82611301565b6115868185611560565b935061159681856020860161131d565b61159f81611347565b840191505092915050565b6115b381611391565b82525050565b6000610140830160008301516115d26000860182611542565b5060208301516115e56020860182611551565b50604083015184820360408601526115fd8282611571565b91505060608301516116126060860182611542565b5060808301516116256080860182611542565b5060a083015161163860a0860182611542565b5060c083015161164b60c0860182611542565b5060e083015161165e60e0860182611542565b506101008301516116736101008601826115aa565b506101208301516116886101208601826115aa565b508091505092915050565b600061169f83836115b9565b905092915050565b6000602082019050919050565b60006116bf82611516565b6116c98185611521565b9350836020820285016116db85611532565b8060005b8581101561171757848403895281516116f88582611693565b9450611703836116a7565b925060208a019950506001810190506116df565b50829750879550505050505092915050565b6000602082019050818103600083015261174381846116b4565b905092915050565b600080fd5b600080fd5b7f4e487b7100000000000000000000000000000000000000000000000000000000600052604160045260246000fd5b61178d82611347565b810181811067ffffffffffffffff821117156117ac576117ab611755565b5b80604052505050565b60006117bf61123a565b90506117cb8282611784565b919050565b600067ffffffffffffffff8211156117eb576117ea611755565b5b6117f482611347565b9050602081019050919050565b82818337600083830152505050565b600061182361181e846117d0565b6117b5565b90508281526020810184848401111561183f5761183e611750565b5b61184a848285611801565b509392505050565b600082601f8301126118675761186661174b565b5b8135611877848260208601611810565b91505092915050565b600080600080600060a0868803121561189c5761189b611244565b5b600086013567ffffffffffffffff8111156118ba576118b9611249565b5b6118c688828901611852565b95505060206118d78882890161126f565b94505060406118e88882890161126f565b93505060606118f98882890161126f565b925050608061190a8882890161126f565b9150509295509295909350565b7f4e487b7100000000000000000000000000000000000000000000000000000000600052602260045260246000fd5b6000600282049050600182168061195e57607f821691505b60208210810361197157611970611917565b5b50919050565b7f4f6e6c79206f7267616e697a65722063616e2077697468647261770000000000600082015250565b60006119ad601b8361130c565b91506119b882611977565b602082019050919050565b600060208201905081810360008301526119dc816119a0565b9050919050565b7f4576656e742069732063616e63656c65642c2063616e6e6f742077697468647260008201527f6177000000000000000000000000000000000000000000000000000000000000602082015250565b6000611a3f60228361130c565b9150611a4a826119e3565b604082019050919050565b60006020820190508181036000830152611a6e81611a32565b9050919050565b7f4576656e7420686173206e6f7420656e64656420796574000000000000000000600082015250565b6000611aab60178361130c565b9150611ab682611a75565b602082019050919050565b60006020820190508181036000830152611ada81611a9e565b9050919050565b7f46756e647320616c72656164792077697468647261776e000000000000000000600082015250565b6000611b1760178361130c565b9150611b2282611ae1565b602082019050919050565b60006020820190508181036000830152611b4681611b0a565b9050919050565b7f4e487b7100000000000000000000000000000000000000000000000000000000600052601160045260246000fd5b6000611b878261124e565b9150611b928361124e565b9250828202611ba08161124e565b91508282048414831517611bb757611bb6611b4d565b5b5092915050565b7f4e6f2066756e647320746f207769746864726177000000000000000000000000600082015250565b6000611bf460148361130c565b9150611bff82611bbe565b602082019050919050565b60006020820190508181036000830152611c2381611be7565b9050919050565b600081905092915050565b50565b6000611c45600083611c2a565b9150611c5082611c35565b600082019050919050565b6000611c6682611c38565b9150819050919050565b7f5472616e73666572206661696c65640000000000000000000000000000000000600082015250565b6000611ca6600f8361130c565b9150611cb182611c70565b602082019050919050565b60006020820190508181036000830152611cd581611c99565b9050919050565b7f4576656e742068617320656e6465640000000000000000000000000000000000600082015250565b6000611d12600f8361130c565b9150611d1d82611cdc565b602082019050919050565b60006020820190508181036000830152611d4181611d05565b9050919050565b7f4576656e742069732063616e63656c6564000000000000000000000000000000600082015250565b6000611d7e60118361130c565b9150611d8982611d48565b602082019050919050565b60006020820190508181036000830152611dad81611d71565b9050919050565b6000611dbf8261124e565b9150611dca8361124e565b9250828201905080821115611de257611de1611b4d565b5b92915050565b7f4e6f7420656e6f756768207469636b657473206c656674000000000000000000600082015250565b6000611e1e60178361130c565b9150611e2982611de8565b602082019050919050565b60006020820190508181036000830152611e4d81611e11565b9050919050565b7f496e636f72726563742045746865722073656e74000000000000000000000000600082015250565b6000611e8a60148361130c565b9150611e9582611e54565b602082019050919050565b60006020820190508181036000830152611eb981611e7d565b9050919050565b7f4d75737420627579206174206c656173742031207469636b6574000000000000600082015250565b6000611ef6601a8361130c565b9150611f0182611ec0565b602082019050919050565b60006020820190508181036000830152611f2581611ee9565b9050919050565b7f4f6e6c79206f7267616e697a65722063616e2063616e63656c00000000000000600082015250565b6000611f6260198361130c565b9150611f6d82611f2c565b602082019050919050565b60006020820190508181036000830152611f9181611f55565b9050919050565b7f4576656e7420616c72656164792063616e63656c656400000000000000000000600082015250565b6000611fce60168361130c565b9150611fd982611f98565b602082019050919050565b60006020820190508181036000830152611ffd81611fc1565b9050919050565b7f4576656e742068617320616c7265616479207374617274656400000000000000600082015250565b600061203a60198361130c565b915061204582612004565b602082019050919050565b600060208201905081810360008301526120698161202d565b9050919050565b7f4e6f207469636b65747320746f20726566756e64000000000000000000000000600082015250565b60006120a660148361130c565b91506120b182612070565b602082019050919050565b600060208201905081810360008301526120d581612099565b9050919050565b60006120e78261124e565b91506120f28361124e565b925082820390508181111561210a57612109611b4d565b5b92915050565b7f526566756e64206e6f7420616c6c6f776564202854696d65206c696d6974207060008201527f6173736564290000000000000000000000000000000000000000000000000000602082015250565b600061216c60268361130c565b915061217782612110565b604082019050919050565b6000602082019050818103600083015261219b8161215f565b9050919050565b7f526566756e64207472616e73666572206661696c656400000000000000000000600082015250565b60006121d860168361130c565b91506121e3826121a2565b602082019050919050565b60006020820190508181036000830152612207816121cb565b9050919050565b7f4e487b7100000000000000000000000000000000000000000000000000000000600052603260045260246000fd5b7f4576656e742064617465206d75737420626520696e2074686520667574757265600082015250565b600061227360208361130c565b915061227e8261223d565b602082019050919050565b600060208201905081810360008301526122a281612266565b9050919050565b7f456e642064617465206d7573742062652061667465722073746172742064617460008201527f6500000000000000000000000000000000000000000000000000000000000000602082015250565b600061230560218361130c565b9150612310826122a9565b604082019050919050565b60006020820190508181036000830152612334816122f8565b9050919050565b7f4361706163697479206d7573742062652067726561746572207468616e203000600082015250565b6000612371601f8361130c565b915061237c8261233b565b602082019050919050565b600060208201905081810360008301526123a081612364565b9050919050565b60008190508160005260206000209050919050565b60006020601f8301049050919050565b600082821b905092915050565b6000600883026124097fffffffffffffffffffffffffffffffffffffffffffffffffffffffffffffffff826123cc565b61241386836123cc565b95508019841693508086168417925050509392505050565b6000819050919050565b600061245061244b6124468461124e565b61242b565b61124e565b9050919050565b6000819050919050565b61246a83612435565b61247e61247682612457565b8484546123d9565b825550505050565b600090565b612493612486565b61249e818484612461565b505050565b5b818110156124c2576124b760008261248b565b6001810190506124a4565b5050565b601f821115612507576124d8816123a7565b6124e1846123bc565b810160208510156124f0578190505b6125046124fc856123bc565b8301826124a3565b50505b505050565b600082821c905092915050565b600061252a6000198460080261250c565b1980831691505092915050565b60006125438383612519565b9150826002028217905092915050565b61255c82611301565b67ffffffffffffffff81111561257557612574611755565b5b61257f8254611946565b61258a8282856124c6565b600060209050601f8311600181146125bd57600084156125ab578287015190505b6125b58582612537565b86555061261d565b601f1984166125cb866123a7565b60005b828110156125f3578489015182556001820191506020850194506020810190506125ce565b86831015612610578489015161260c601f891682612519565b8355505b6001600288020188555050505b505050505050565b6000606082019050818103600083015261263f8186611358565b905061264e60208301856112b1565b61265b60408301846112b1565b949350505050565b600061266e8261124e565b91507fffffffffffffffffffffffffffffffffffffffffffffffffffffffffffffffff82036126a05761269f611b4d565b5b60018201905091905056fea264697066735822122001aa753c9fc25b06849f2c9c94c287d5b13ef909a837a9e8cc54e76d1e6716f764736f6c634300081c0033",
  "linkReferences": {},
  "deployedLinkReferences": {}
}