{
  "_format": "hh-sol-artifact-1",
  "contractName": "EventTicketing",
  "sourceName": "contracts/EventTicketing.sol",
  "abi": [
    {
      "anonymous": false,
      "inputs": [
        {
          "indexed": true,
          "internalType": "uint256",
          "name": "eventId",
          "type": "uint256"
        }
      ],
      "name": "EventCanceled",
      "type": "event"
    },
    {
      "anonymous": false,
      "inputs": [
        {
          "indexed": true,
          "internalType": "uint256",
          "name": "id",
          "type": "uint256"
        },
        {
          "indexed": true,
          "internalType": "address",
          "name": "organizer",
          "type": "address"
        },
        {
          "indexed": false,
          "internalType": "string",
          "name": "title",
          "type": "string"
        },
        {
          "indexed": false,
          "internalType": "uint256",
          "name": "date",
          "type": "uint256"
        },
        {
          "indexed": false,
          "internalType": "uint256",
          "name": "endDate",
          "type": "uint256"
        }
      ],
      "name": "EventCreated",
      "type": "event"
    },
    {
      "anonymous": false,
      "inputs": [
        {
          "indexed": true,
          "internalType": "uint256",
          "name": "eventId",
          "type": "uint256"
        },
        {
          "indexed": true,
          "internalType": "address",
          "name": "organizer",
          "type": "address"
        },
        {
          "indexed": false,
          "internalType": "uint256",
          "name": "amount",
          "type": "uint256"
        }
      ],
      "name": "FundsWithdrawn",
      "type": "event"
    },
    {
      "anonymous": false,
      "inputs": [
        {
          "indexed": true,
          "internalType": "uint256",
          "name": "eventId",
          "type": "uint256"
        },
        {
          "indexed": true,
          "internalType": "address",
          "name": "buyer",
          "type": "address"
        },
        {
          "indexed": false,
          "internalType": "uint256",
          "name": "amount",
          "type": "uint256"
        }
      ],
      "name": "RefundIssued",
      "type": "event"
    },
    {
      "anonymous": false,
      "inputs": [
        {
          "indexed": true,
          "internalType": "uint256",
          "name": "eventId",
          "type": "uint256"
        },
        {
          "indexed": true,
          "internalType": "address",
          "name": "buyer",
          "type": "address"
        },
        {
          "indexed": false,
          "internalType": "uint256",
          "name": "count",
          "type": "uint256"
        }
      ],
      "name": "TicketPurchased",
      "type": "event"
    },
    {
      "inputs": [
        {
          "internalType": "uint256",
          "name": "_eventId",
          "type": "uint256"
        },
        {
          "internalType": "uint256",
          "name": "_quantity",
          "type": "uint256"
        }
      ],
      "name": "buyTicket",
      "outputs": [],
      "stateMutability": "payable",
      "type": "function"
    },
    {
      "inputs": [
        {
          "internalType": "uint256",
          "name": "_eventId",
          "type": "uint256"
        }
      ],
      "name": "cancelEvent",
      "outputs": [],
      "stateMutability": "nonpayable",
      "type": "function"
    },
    {
      "inputs": [
        {
          "internalType": "string",
          "name": "_title",
          "type": "string"
        },
        {
          "internalType": "uint256",
          "name": "_price",
          "type": "uint256"
        },
        {
          "internalType": "uint256",
          "name": "_date",
          "type": "uint256"
        },
        {
          "internalType": "uint256",
          "name": "_endDate",
          "type": "uint256"
        },
        {
          "internalType": "uint256",
          "name": "_capacity",
          "type": "uint256"
        }
      ],
      "name": "createEvent",
      "outputs": [],
      "stateMutability": "nonpayable",
      "type": "function"
    },
    {
      "inputs": [
        {
          "internalType": "uint256",
          "name": "",
          "type": "uint256"
        }
      ],
      "name": "events",
      "outputs": [
        {
          "internalType": "uint256",
          "name": "id",
          "type": "uint256"
        },
        {
          "internalType": "address",
          "name": "organizer",
          "type": "address"
        },
        {
          "internalType": "string",
          "name": "title",
          "type": "string"
        },
        {
          "internalType": "uint256",
          "name": "price",
          "type": "uint256"
        },
        {
          "internalType": "uint256",
          "name": "date",
          "type": "uint256"
        },
        {
          "internalType": "uint256",
          "name": "endDate",
          "type": "uint256"
        },
        {
          "internalType": "uint256",
          "name": "capacity",
          "type": "uint256"
        },
        {
          "internalType": "uint256",
          "name": "soldCount",
          "type": "uint256"
        },
        {
          "internalType": "bool",
          "name": "isCanceled",
          "type": "bool"
        },
        {
          "internalType": "bool",
          "name": "fundsWithdrawn",
          "type": "bool"
        }
      ],
      "stateMutability": "view",
      "type": "function"
    },
    {
      "inputs": [],
      "name": "nextEventId",
      "outputs": [
        {
          "internalType": "uint256",
          "name": "",
          "type": "uint256"
        }
      ],
      "stateMutability": "view",
      "type": "function"
    },
    {
      "inputs": [
        {
          "internalType": "uint256",
          "name": "_eventId",
          "type": "uint256"
        }
      ],
      "name": "requestRefund",
      "outputs": [],
      "stateMutability": "nonpayable",
      "type": "function"
    },
    {
      "inputs": [
        {
          "internalType": "uint256",
          "name": "",
          "type": "uint256"
        },
        {
          "internalType": "address",
          "name": "",
          "type": "address"
        }
      ],
      "name": "tickets",
      "outputs": [
        {
          "internalType": "uint256",
          "name": "",
          "type": "uint256"
        }
      ],
      "stateMutability": "view",
      "type": "function"
    },
    {
      "inputs": [
        {
          "internalType": "uint256",
          "name": "_eventId",
          "type": "uint256"
        }
      ],
      "name": "withdrawFunds",
      "outputs": [],
      "stateMutability": "nonpayable",
      "type": "function"
    }
  ],
  "bytecode": "0x6080604052348015600f57600080fd5b506121c68061001f6000396000f3fe60806040526004361061007b5760003560e01c80639f9d903a1161004e5780639f9d903a14610134578063a4b2409e1461015f578063b99d6e2914610188578063dbf3f3c9146101c55761007b565b80630b79143014610080578063155dd5ee146100c6578063298ec208146100ef5780633f69babd1461010b575b600080fd5b34801561008c57600080fd5b506100a760048036038101906100a29190610fcd565b6101ee565b6040516100bd9a999897969594939291906110f5565b60405180910390f35b3480156100d257600080fd5b506100ed60048036038101906100e89190610fcd565b610304565b005b61010960048036038101906101049190611198565b610610565b005b34801561011757600080fd5b50610132600480360381019061012d9190610fcd565b61087f565b005b34801561014057600080fd5b50610149610a0e565b60405161015691906111d8565b60405180910390f35b34801561016b57600080fd5b5061018660048036038101906101819190610fcd565b610a14565b005b34801561019457600080fd5b506101af60048036038101906101aa919061121f565b610ccd565b6040516101bc91906111d8565b60405180910390f35b3480156101d157600080fd5b506101ec60048036038101906101e79190611394565b610cf2565b005b60016020528060005260406000206000915090508060000154908060010160009054906101000a900473ffffffffffffffffffffffffffffffffffffffff169080600201805461023d9061145a565b80601f01602080910402602001604051908101604052809291908181526020018280546102699061145a565b80156102b65780601f1061028b576101008083540402835291602001916102b6565b820191906000526020600020905b81548152906001019060200180831161029957829003601f168201915b5050505050908060030154908060040154908060050154908060060154908060070154908060080160009054906101000a900460ff16908060080160019054906101000a900460ff1690508a565b60006001600083815260200190815260200160002090508060010160009054906101000a900473ffffffffffffffffffffffffffffffffffffffff1673ffffffffffffffffffffffffffffffffffffffff163373ffffffffffffffffffffffffffffffffffffffff16146103ad576040517f08c379a00000000000000000000000000000000000000000000000000000000081526004016103a4906114d7565b60405180910390fd5b8060080160009054906101000a900460ff16156103ff576040517f08c379a00000000000000000000000000000000000000000000000000000000081526004016103f690611569565b60405180910390fd5b80600501544211610445576040517f08c379a000000000000000000000000000000000000000000000000000000000815260040161043c906115d5565b60405180910390fd5b8060080160019054906101000a900460ff1615610497576040517f08c379a000000000000000000000000000000000000000000000000000000000815260040161048e90611641565b60405180910390fd5b6000816003015482600701546104ad9190611690565b9050600081116104f2576040517f08c379a00000000000000000000000000000000000000000000000000000000081526004016104e99061171e565b60405180910390fd5b60018260080160016101000a81548160ff02191690831515021790555060003373ffffffffffffffffffffffffffffffffffffffff16826040516105359061176f565b60006040518083038185875af1925050503d8060008114610572576040519150601f19603f3d011682016040523d82523d6000602084013e610577565b606091505b50509050806105bb576040517f08c379a00000000000000000000000000000000000000000000000000000000081526004016105b2906117d0565b60405180910390fd5b3373ffffffffffffffffffffffffffffffffffffffff16847ff440aec6b52895984d061d622e6edeba6210f7c3e059be920663140c084560d78460405161060291906111d8565b60405180910390a350505050565b60006001600084815260200190815260200160002090504281600401541161066d576040517f08c379a00000000000000000000000000000000000000000000000000000000081526004016106649061183c565b60405180910390fd5b8060080160009054906101000a900460ff16156106bf576040517f08c379a00000000000000000000000000000000000000000000000000000000081526004016106b6906118a8565b60405180910390fd5b80600601548282600701546106d491906118c8565b1115610715576040517f08c379a000000000000000000000000000000000000000000000000000000000815260040161070c90611948565b60405180910390fd5b8181600301546107259190611690565b3414610766576040517f08c379a000000000000000000000000000000000000000000000000000000000815260040161075d906119b4565b60405180910390fd5b600082116107a9576040517f08c379a00000000000000000000000000000000000000000000000000000000081526004016107a090611a20565b60405180910390fd5b816002600085815260200190815260200160002060003373ffffffffffffffffffffffffffffffffffffffff1673ffffffffffffffffffffffffffffffffffffffff168152602001908152602001600020600082825461080991906118c8565b925050819055508181600701600082825461082491906118c8565b925050819055503373ffffffffffffffffffffffffffffffffffffffff16837fdbaaf4c87ce30816c961a81d110622a3227ede77953d4383d514ff88ab2e0fd38460405161087291906111d8565b60405180910390a3505050565b60006001600083815260200190815260200160002090508060010160009054906101000a900473ffffffffffffffffffffffffffffffffffffffff1673ffffffffffffffffffffffffffffffffffffffff163373ffffffffffffffffffffffffffffffffffffffff1614610928576040517f08c379a000000000000000000000000000000000000000000000000000000000815260040161091f90611a8c565b60405180910390fd5b8060080160009054906101000a900460ff161561097a576040517f08c379a000000000000000000000000000000000000000000000000000000000815260040161097190611af8565b60405180910390fd5b428160040154116109c0576040517f08c379a00000000000000000000000000000000000000000000000000000000081526004016109b790611b64565b60405180910390fd5b60018160080160006101000a81548160ff021916908315150217905550817fceaf11772900fe569752a0207c8639fb8228eb8663456dc9eaa3a08f927a870560405160405180910390a25050565b60005481565b600060016000838152602001908152602001600020905060006002600084815260200190815260200160002060003373ffffffffffffffffffffffffffffffffffffffff1673ffffffffffffffffffffffffffffffffffffffff16815260200190815260200160002054905060008111610ac3576040517f08c379a0000000000000000000000000000000000000000000000000000000008152600401610aba90611bd0565b60405180910390fd5b60008260080160009054906101000a900460ff1615610ae55760019050610b05565b620151808360040154610af89190611bf0565b421015610b0457600190505b5b80610b45576040517f08c379a0000000000000000000000000000000000000000000000000000000008152600401610b3c90611c96565b60405180910390fd5b6000836003015483610b579190611690565b905060006002600087815260200190815260200160002060003373ffffffffffffffffffffffffffffffffffffffff1673ffffffffffffffffffffffffffffffffffffffff1681526020019081526020016000208190555082846007016000828254610bc39190611bf0565b9250508190555060003373ffffffffffffffffffffffffffffffffffffffff1682604051610bf09061176f565b60006040518083038185875af1925050503d8060008114610c2d576040519150601f19603f3d011682016040523d82523d6000602084013e610c32565b606091505b5050905080610c76576040517f08c379a0000000000000000000000000000000000000000000000000000000008152600401610c6d90611d02565b60405180910390fd5b3373ffffffffffffffffffffffffffffffffffffffff16867f7a482fdeb6bc9a1376f597068a214a7a39472bb2eff1b8cad21ba04f49ddca1b84604051610cbd91906111d8565b60405180910390a3505050505050565b6002602052816000526040600020602052806000526040600020600091509150505481565b428311610d34576040517f08c379a0000000000000000000000000000000000000000000000000000000008152600401610d2b90611d6e565b60405180910390fd5b828211610d76576040517f08c379a0000000000000000000000000000000000000000000000000000000008152600401610d6d90611e00565b60405180910390fd5b60008111610db9576040517f08c379a0000000000000000000000000000000000000000000000000000000008152600401610db090611e6c565b60405180910390fd5b60405180610140016040528060005481526020013373ffffffffffffffffffffffffffffffffffffffff168152602001868152602001858152602001848152602001838152602001828152602001600081526020016000151581526020016000151581525060016000805481526020019081526020016000206000820151816000015560208201518160010160006101000a81548173ffffffffffffffffffffffffffffffffffffffff021916908373ffffffffffffffffffffffffffffffffffffffff1602179055506040820151816002019081610e989190612038565b50606082015181600301556080820151816004015560a0820151816005015560c0820151816006015560e082015181600701556101008201518160080160006101000a81548160ff0219169083151502179055506101208201518160080160016101000a81548160ff0219169083151502179055509050503373ffffffffffffffffffffffffffffffffffffffff166000547f3e1e16dc53562886fa9ab2acde567c1067c24a0c4daad0e47ab75c7b194a90ed878686604051610f5d9392919061210a565b60405180910390a3600080815480929190610f7790612148565b91905055505050505050565b6000604051905090565b600080fd5b600080fd5b6000819050919050565b610faa81610f97565b8114610fb557600080fd5b50565b600081359050610fc781610fa1565b92915050565b600060208284031215610fe357610fe2610f8d565b5b6000610ff184828501610fb8565b91505092915050565b61100381610f97565b82525050565b600073ffffffffffffffffffffffffffffffffffffffff82169050919050565b600061103482611009565b9050919050565b61104481611029565b82525050565b600081519050919050565b600082825260208201905092915050565b60005b83811015611084578082015181840152602081019050611069565b60008484015250505050565b6000601f19601f8301169050919050565b60006110ac8261104a565b6110b68185611055565b93506110c6818560208601611066565b6110cf81611090565b840191505092915050565b60008115159050919050565b6110ef816110da565b82525050565b60006101408201905061110b600083018d610ffa565b611118602083018c61103b565b818103604083015261112a818b6110a1565b9050611139606083018a610ffa565b6111466080830189610ffa565b61115360a0830188610ffa565b61116060c0830187610ffa565b61116d60e0830186610ffa565b61117b6101008301856110e6565b6111896101208301846110e6565b9b9a5050505050505050505050565b600080604083850312156111af576111ae610f8d565b5b60006111bd85828601610fb8565b92505060206111ce85828601610fb8565b9150509250929050565b60006020820190506111ed6000830184610ffa565b92915050565b6111fc81611029565b811461120757600080fd5b50565b600081359050611219816111f3565b92915050565b6000806040838503121561123657611235610f8d565b5b600061124485828601610fb8565b92505060206112558582860161120a565b9150509250929050565b600080fd5b600080fd5b7f4e487b7100000000000000000000000000000000000000000000000000000000600052604160045260246000fd5b6112a182611090565b810181811067ffffffffffffffff821117156112c0576112bf611269565b5b80604052505050565b60006112d3610f83565b90506112df8282611298565b919050565b600067ffffffffffffffff8211156112ff576112fe611269565b5b61130882611090565b9050602081019050919050565b82818337600083830152505050565b6000611337611332846112e4565b6112c9565b90508281526020810184848401111561135357611352611264565b5b61135e848285611315565b509392505050565b600082601f83011261137b5761137a61125f565b5b813561138b848260208601611324565b91505092915050565b600080600080600060a086880312156113b0576113af610f8d565b5b600086013567ffffffffffffffff8111156113ce576113cd610f92565b5b6113da88828901611366565b95505060206113eb88828901610fb8565b94505060406113fc88828901610fb8565b935050606061140d88828901610fb8565b925050608061141e88828901610fb8565b9150509295509295909350565b7f4e487b7100000000000000000000000000000000000000000000000000000000600052602260045260246000fd5b6000600282049050600182168061147257607f821691505b6020821081036114855761148461142b565b5b50919050565b7f4f6e6c79206f7267616e697a65722063616e2077697468647261770000000000600082015250565b60006114c1601b83611055565b91506114cc8261148b565b602082019050919050565b600060208201905081810360008301526114f0816114b4565b9050919050565b7f4576656e742069732063616e63656c65642c2063616e6e6f742077697468647260008201527f6177000000000000000000000000000000000000000000000000000000000000602082015250565b6000611553602283611055565b915061155e826114f7565b604082019050919050565b6000602082019050818103600083015261158281611546565b9050919050565b7f4576656e7420686173206e6f7420656e64656420796574000000000000000000600082015250565b60006115bf601783611055565b91506115ca82611589565b602082019050919050565b600060208201905081810360008301526115ee816115b2565b9050919050565b7f46756e647320616c72656164792077697468647261776e000000000000000000600082015250565b600061162b601783611055565b9150611636826115f5565b602082019050919050565b6000602082019050818103600083015261165a8161161e565b9050919050565b7f4e487b7100000000000000000000000000000000000000000000000000000000600052601160045260246000fd5b600061169b82610f97565b91506116a683610f97565b92508282026116b481610f97565b915082820484148315176116cb576116ca611661565b5b5092915050565b7f4e6f2066756e647320746f207769746864726177000000000000000000000000600082015250565b6000611708601483611055565b9150611713826116d2565b602082019050919050565b60006020820190508181036000830152611737816116fb565b9050919050565b600081905092915050565b50565b600061175960008361173e565b915061176482611749565b600082019050919050565b600061177a8261174c565b9150819050919050565b7f5472616e73666572206661696c65640000000000000000000000000000000000600082015250565b60006117ba600f83611055565b91506117c582611784565b602082019050919050565b600060208201905081810360008301526117e9816117ad565b9050919050565b7f4576656e74206861732070617373656400000000000000000000000000000000600082015250565b6000611826601083611055565b9150611831826117f0565b602082019050919050565b6000602082019050818103600083015261185581611819565b9050919050565b7f4576656e742069732063616e63656c6564000000000000000000000000000000600082015250565b6000611892601183611055565b915061189d8261185c565b602082019050919050565b600060208201905081810360008301526118c181611885565b9050919050565b60006118d382610f97565b91506118de83610f97565b92508282019050808211156118f6576118f5611661565b5b92915050565b7f4e6f7420656e6f756768207469636b657473206c656674000000000000000000600082015250565b6000611932601783611055565b915061193d826118fc565b602082019050919050565b6000602082019050818103600083015261196181611925565b9050919050565b7f496e636f72726563742045746865722073656e74000000000000000000000000600082015250565b600061199e601483611055565b91506119a982611968565b602082019050919050565b600060208201905081810360008301526119cd81611991565b9050919050565b7f4d75737420627579206174206c656173742031207469636b6574000000000000600082015250565b6000611a0a601a83611055565b9150611a15826119d4565b602082019050919050565b60006020820190508181036000830152611a39816119fd565b9050919050565b7f4f6e6c79206f7267616e697a65722063616e2063616e63656c00000000000000600082015250565b6000611a76601983611055565b9150611a8182611a40565b602082019050919050565b60006020820190508181036000830152611aa581611a69565b9050919050565b7f4576656e7420616c72656164792063616e63656c656400000000000000000000600082015250565b6000611ae2601683611055565b9150611aed82611aac565b602082019050919050565b60006020820190508181036000830152611b1181611ad5565b9050919050565b7f4576656e742068617320616c7265616479207374617274656400000000000000600082015250565b6000611b4e601983611055565b9150611b5982611b18565b602082019050919050565b60006020820190508181036000830152611b7d81611b41565b9050919050565b7f4e6f207469636b65747320746f20726566756e64000000000000000000000000600082015250565b6000611bba601483611055565b9150611bc582611b84565b602082019050919050565b60006020820190508181036000830152611be981611bad565b9050919050565b6000611bfb82610f97565b9150611c0683610f97565b9250828203905081811115611c1e57611c1d611661565b5b92915050565b7f526566756e64206e6f7420616c6c6f776564202854696d65206c696d6974207060008201527f617373656420616e64206e6f742063616e63656c656429000000000000000000602082015250565b6000611c80603783611055565b9150611c8b82611c24565b604082019050919050565b60006020820190508181036000830152611caf81611c73565b9050919050565b7f526566756e64207472616e73666572206661696c656400000000000000000000600082015250565b6000611cec601683611055565b9150611cf782611cb6565b602082019050919050565b60006020820190508181036000830152611d1b81611cdf565b9050919050565b7f4576656e742064617465206d75737420626520696e2074686520667574757265600082015250565b6000611d58602083611055565b9150611d6382611d22565b602082019050919050565b60006020820190508181036000830152611d8781611d4b565b9050919050565b7f456e642064617465206d7573742062652061667465722073746172742064617460008201527f6500000000000000000000000000000000000000000000000000000000000000602082015250565b6000611dea602183611055565b9150611df582611d8e565b604082019050919050565b60006020820190508181036000830152611e1981611ddd565b9050919050565b7f4361706163697479206d7573742062652067726561746572207468616e203000600082015250565b6000611e56601f83611055565b9150611e6182611e20565b602082019050919050565b60006020820190508181036000830152611e8581611e49565b9050919050565b60008190508160005260206000209050919050565b60006020601f8301049050919050565b600082821b905092915050565b600060088302611eee7fffffffffffffffffffffffffffffffffffffffffffffffffffffffffffffffff82611eb1565b611ef88683611eb1565b95508019841693508086168417925050509392505050565b6000819050919050565b6000611f35611f30611f2b84610f97565b611f10565b610f97565b9050919050565b6000819050919050565b611f4f83611f1a565b611f63611f5b82611f3c565b848454611ebe565b825550505050565b600090565b611f78611f6b565b611f83818484611f46565b505050565b5b81811015611fa757611f9c600082611f70565b600181019050611f89565b5050565b601f821115611fec57611fbd81611e8c565b611fc684611ea1565b81016020851015611fd5578190505b611fe9611fe185611ea1565b830182611f88565b50505b505050565b600082821c905092915050565b600061200f60001984600802611ff1565b1980831691505092915050565b60006120288383611ffe565b9150826002028217905092915050565b6120418261104a565b67ffffffffffffffff81111561205a57612059611269565b5b612064825461145a565b61206f828285611fab565b600060209050601f8311600181146120a25760008415612090578287015190505b61209a858261201c565b865550612102565b601f1984166120b086611e8c565b60005b828110156120d8578489015182556001820191506020850194506020810190506120b3565b868310156120f557848901516120f1601f891682611ffe565b8355505b6001600288020188555050505b505050505050565b6000606082019050818103600083015261212481866110a1565b90506121336020830185610ffa565b6121406040830184610ffa565b949350505050565b600061215382610f97565b91507fffffffffffffffffffffffffffffffffffffffffffffffffffffffffffffffff820361218557612184611661565b5b60018201905091905056fea2646970667358221220c451a4d33c4fe663828270aaa4b98fc78341efc4bccb8d8b941c51539538e1f964736f6c634300081c0033",
  "linkReferences": {},
  "deployedLinkReferences": {}
}